{
  "contractName": "NFT1155",
  "abi": [
    {
      "inputs": [],
      "stateMutability": "nonpayable",
      "type": "constructor"
    },
    {
      "anonymous": false,
      "inputs": [
        {
          "indexed": true,
          "internalType": "address",
          "name": "account",
          "type": "address"
        },
        {
          "indexed": true,
          "internalType": "address",
          "name": "operator",
          "type": "address"
        },
        {
          "indexed": false,
          "internalType": "bool",
          "name": "approved",
          "type": "bool"
        }
      ],
      "name": "ApprovalForAll",
      "type": "event"
    },
    {
      "anonymous": false,
      "inputs": [
        {
          "indexed": true,
          "internalType": "address",
          "name": "previousOwner",
          "type": "address"
        },
        {
          "indexed": true,
          "internalType": "address",
          "name": "newOwner",
          "type": "address"
        }
      ],
      "name": "OwnershipTransferred",
      "type": "event"
    },
    {
      "anonymous": false,
      "inputs": [
        {
          "indexed": true,
          "internalType": "address",
          "name": "operator",
          "type": "address"
        },
        {
          "indexed": true,
          "internalType": "address",
          "name": "from",
          "type": "address"
        },
        {
          "indexed": true,
          "internalType": "address",
          "name": "to",
          "type": "address"
        },
        {
          "indexed": false,
          "internalType": "uint256[]",
          "name": "ids",
          "type": "uint256[]"
        },
        {
          "indexed": false,
          "internalType": "uint256[]",
          "name": "values",
          "type": "uint256[]"
        }
      ],
      "name": "TransferBatch",
      "type": "event"
    },
    {
      "anonymous": false,
      "inputs": [
        {
          "indexed": true,
          "internalType": "address",
          "name": "operator",
          "type": "address"
        },
        {
          "indexed": true,
          "internalType": "address",
          "name": "from",
          "type": "address"
        },
        {
          "indexed": true,
          "internalType": "address",
          "name": "to",
          "type": "address"
        },
        {
          "indexed": false,
          "internalType": "uint256",
          "name": "id",
          "type": "uint256"
        },
        {
          "indexed": false,
          "internalType": "uint256",
          "name": "value",
          "type": "uint256"
        }
      ],
      "name": "TransferSingle",
      "type": "event"
    },
    {
      "anonymous": false,
      "inputs": [
        {
          "indexed": false,
          "internalType": "string",
          "name": "value",
          "type": "string"
        },
        {
          "indexed": true,
          "internalType": "uint256",
          "name": "id",
          "type": "uint256"
        }
      ],
      "name": "URI",
      "type": "event"
    },
    {
      "inputs": [
        {
          "internalType": "address",
          "name": "account",
          "type": "address"
        },
        {
          "internalType": "uint256",
          "name": "id",
          "type": "uint256"
        }
      ],
      "name": "balanceOf",
      "outputs": [
        {
          "internalType": "uint256",
          "name": "",
          "type": "uint256"
        }
      ],
      "stateMutability": "view",
      "type": "function",
      "constant": true
    },
    {
      "inputs": [
        {
          "internalType": "address[]",
          "name": "accounts",
          "type": "address[]"
        },
        {
          "internalType": "uint256[]",
          "name": "ids",
          "type": "uint256[]"
        }
      ],
      "name": "balanceOfBatch",
      "outputs": [
        {
          "internalType": "uint256[]",
          "name": "",
          "type": "uint256[]"
        }
      ],
      "stateMutability": "view",
      "type": "function",
      "constant": true
    },
    {
      "inputs": [
        {
          "internalType": "address",
          "name": "account",
          "type": "address"
        },
        {
          "internalType": "address",
          "name": "operator",
          "type": "address"
        }
      ],
      "name": "isApprovedForAll",
      "outputs": [
        {
          "internalType": "bool",
          "name": "",
          "type": "bool"
        }
      ],
      "stateMutability": "view",
      "type": "function",
      "constant": true
    },
    {
      "inputs": [],
      "name": "owner",
      "outputs": [
        {
          "internalType": "address",
          "name": "",
          "type": "address"
        }
      ],
      "stateMutability": "view",
      "type": "function",
      "constant": true
    },
    {
      "inputs": [],
      "name": "renounceOwnership",
      "outputs": [],
      "stateMutability": "nonpayable",
      "type": "function"
    },
    {
      "inputs": [
        {
          "internalType": "address",
          "name": "from",
          "type": "address"
        },
        {
          "internalType": "address",
          "name": "to",
          "type": "address"
        },
        {
          "internalType": "uint256[]",
          "name": "ids",
          "type": "uint256[]"
        },
        {
          "internalType": "uint256[]",
          "name": "amounts",
          "type": "uint256[]"
        },
        {
          "internalType": "bytes",
          "name": "data",
          "type": "bytes"
        }
      ],
      "name": "safeBatchTransferFrom",
      "outputs": [],
      "stateMutability": "nonpayable",
      "type": "function"
    },
    {
      "inputs": [
        {
          "internalType": "address",
          "name": "from",
          "type": "address"
        },
        {
          "internalType": "address",
          "name": "to",
          "type": "address"
        },
        {
          "internalType": "uint256",
          "name": "id",
          "type": "uint256"
        },
        {
          "internalType": "uint256",
          "name": "amount",
          "type": "uint256"
        },
        {
          "internalType": "bytes",
          "name": "data",
          "type": "bytes"
        }
      ],
      "name": "safeTransferFrom",
      "outputs": [],
      "stateMutability": "nonpayable",
      "type": "function"
    },
    {
      "inputs": [
        {
          "internalType": "address",
          "name": "operator",
          "type": "address"
        },
        {
          "internalType": "bool",
          "name": "approved",
          "type": "bool"
        }
      ],
      "name": "setApprovalForAll",
      "outputs": [],
      "stateMutability": "nonpayable",
      "type": "function"
    },
    {
      "inputs": [
        {
          "internalType": "bytes4",
          "name": "interfaceId",
          "type": "bytes4"
        }
      ],
      "name": "supportsInterface",
      "outputs": [
        {
          "internalType": "bool",
          "name": "",
          "type": "bool"
        }
      ],
      "stateMutability": "view",
      "type": "function",
      "constant": true
    },
    {
      "inputs": [
        {
          "internalType": "address",
          "name": "newOwner",
          "type": "address"
        }
      ],
      "name": "transferOwnership",
      "outputs": [],
      "stateMutability": "nonpayable",
      "type": "function"
    },
    {
      "inputs": [
        {
          "internalType": "uint256",
          "name": "",
          "type": "uint256"
        }
      ],
      "name": "uri",
      "outputs": [
        {
          "internalType": "string",
          "name": "",
          "type": "string"
        }
      ],
      "stateMutability": "view",
      "type": "function",
      "constant": true
    },
    {
      "inputs": [
        {
          "internalType": "string",
          "name": "newuri",
          "type": "string"
        }
      ],
      "name": "setURI",
      "outputs": [],
      "stateMutability": "nonpayable",
      "type": "function"
    },
    {
      "inputs": [
        {
          "internalType": "address",
          "name": "account",
          "type": "address"
        },
        {
          "internalType": "uint256",
          "name": "id",
          "type": "uint256"
        },
        {
          "internalType": "uint256",
          "name": "amount",
          "type": "uint256"
        },
        {
          "internalType": "bytes",
          "name": "data",
          "type": "bytes"
        }
      ],
      "name": "mint",
      "outputs": [],
      "stateMutability": "nonpayable",
      "type": "function"
    },
    {
      "inputs": [
        {
          "internalType": "address",
          "name": "to",
          "type": "address"
        },
        {
          "internalType": "uint256[]",
          "name": "ids",
          "type": "uint256[]"
        },
        {
          "internalType": "uint256[]",
          "name": "amounts",
          "type": "uint256[]"
        },
        {
          "internalType": "bytes",
          "name": "data",
          "type": "bytes"
        }
      ],
      "name": "mintBatch",
      "outputs": [],
      "stateMutability": "nonpayable",
      "type": "function"
    }
  ],
  "bytecode": "0x60806040523480156200001157600080fd5b506040518060200160405280600081525062000033816200005a60201b60201c565b5062000054620000486200007660201b60201c565b6200007e60201b60201c565b62000259565b80600290805190602001906200007292919062000144565b5050565b600033905090565b6000600360009054906101000a900473ffffffffffffffffffffffffffffffffffffffff16905081600360006101000a81548173ffffffffffffffffffffffffffffffffffffffff021916908373ffffffffffffffffffffffffffffffffffffffff1602179055508173ffffffffffffffffffffffffffffffffffffffff168173ffffffffffffffffffffffffffffffffffffffff167f8be0079c531659141344cd1fd0a4f28419497f9722a3daafe3b4186f6b6457e060405160405180910390a35050565b828054620001529062000223565b90600052602060002090601f016020900481019282620001765760008555620001c2565b82601f106200019157805160ff1916838001178555620001c2565b82800160010185558215620001c2579182015b82811115620001c1578251825591602001919060010190620001a4565b5b509050620001d19190620001d5565b5090565b5b80821115620001f0576000816000905550600101620001d6565b5090565b7f4e487b7100000000000000000000000000000000000000000000000000000000600052602260045260246000fd5b600060028204905060018216806200023c57607f821691505b60208210811415620002535762000252620001f4565b5b50919050565b61331f80620002696000396000f3fe608060405234801561001057600080fd5b50600436106100e95760003560e01c8063715018a61161008c578063a22cb46511610066578063a22cb46514610246578063e985e9c514610262578063f242432a14610292578063f2fde38b146102ae576100e9565b8063715018a614610202578063731133e91461020c5780638da5cb5b14610228576100e9565b80630e89341c116100c85780630e89341c1461016a5780631f7fdffa1461019a5780632eb2c2d6146101b65780634e1273f4146101d2576100e9565b8062fdd58e146100ee57806301ffc9a71461011e57806302fe53051461014e575b600080fd5b61010860048036038101906101039190611d13565b6102ca565b6040516101159190611d62565b60405180910390f35b61013860048036038101906101339190611dd5565b610393565b6040516101459190611e1d565b60405180910390f35b61016860048036038101906101639190611f7e565b610475565b005b610184600480360381019061017f9190611fc7565b6104fd565b604051610191919061207c565b60405180910390f35b6101b460048036038101906101af9190612207565b610591565b005b6101d060048036038101906101cb91906122c2565b61061f565b005b6101ec60048036038101906101e79190612454565b6106c0565b6040516101f9919061258a565b60405180910390f35b61020a6107d9565b005b610226600480360381019061022191906125ac565b610861565b005b6102306108ef565b60405161023d919061263e565b60405180910390f35b610260600480360381019061025b9190612685565b610919565b005b61027c600480360381019061027791906126c5565b61092f565b6040516102899190611e1d565b60405180910390f35b6102ac60048036038101906102a79190612705565b6109c3565b005b6102c860048036038101906102c3919061279c565b610a64565b005b60008073ffffffffffffffffffffffffffffffffffffffff168373ffffffffffffffffffffffffffffffffffffffff16141561033b576040517f08c379a00000000000000000000000000000000000000000000000000000000081526004016103329061283b565b60405180910390fd5b60008083815260200190815260200160002060008473ffffffffffffffffffffffffffffffffffffffff1673ffffffffffffffffffffffffffffffffffffffff16815260200190815260200160002054905092915050565b60007fd9b67a26000000000000000000000000000000000000000000000000000000007bffffffffffffffffffffffffffffffffffffffffffffffffffffffff1916827bffffffffffffffffffffffffffffffffffffffffffffffffffffffff1916148061045e57507f0e89341c000000000000000000000000000000000000000000000000000000007bffffffffffffffffffffffffffffffffffffffffffffffffffffffff1916827bffffffffffffffffffffffffffffffffffffffffffffffffffffffff1916145b8061046e575061046d82610b5c565b5b9050919050565b61047d610bc6565b73ffffffffffffffffffffffffffffffffffffffff1661049b6108ef565b73ffffffffffffffffffffffffffffffffffffffff16146104f1576040517f08c379a00000000000000000000000000000000000000000000000000000000081526004016104e8906128a7565b60405180910390fd5b6104fa81610bce565b50565b60606002805461050c906128f6565b80601f0160208091040260200160405190810160405280929190818152602001828054610538906128f6565b80156105855780601f1061055a57610100808354040283529160200191610585565b820191906000526020600020905b81548152906001019060200180831161056857829003601f168201915b50505050509050919050565b610599610bc6565b73ffffffffffffffffffffffffffffffffffffffff166105b76108ef565b73ffffffffffffffffffffffffffffffffffffffff161461060d576040517f08c379a0000000000000000000000000000000000000000000000000000000008152600401610604906128a7565b60405180910390fd5b61061984848484610be8565b50505050565b610627610bc6565b73ffffffffffffffffffffffffffffffffffffffff168573ffffffffffffffffffffffffffffffffffffffff16148061066d575061066c85610667610bc6565b61092f565b5b6106ac576040517f08c379a00000000000000000000000000000000000000000000000000000000081526004016106a39061299a565b60405180910390fd5b6106b98585858585610e06565b5050505050565b60608151835114610706576040517f08c379a00000000000000000000000000000000000000000000000000000000081526004016106fd90612a2c565b60405180910390fd5b6000835167ffffffffffffffff81111561072357610722611e53565b5b6040519080825280602002602001820160405280156107515781602001602082028036833780820191505090505b50905060005b84518110156107ce5761079e85828151811061077657610775612a4c565b5b602002602001015185838151811061079157610790612a4c565b5b60200260200101516102ca565b8282815181106107b1576107b0612a4c565b5b602002602001018181525050806107c790612aaa565b9050610757565b508091505092915050565b6107e1610bc6565b73ffffffffffffffffffffffffffffffffffffffff166107ff6108ef565b73ffffffffffffffffffffffffffffffffffffffff1614610855576040517f08c379a000000000000000000000000000000000000000000000000000000000815260040161084c906128a7565b60405180910390fd5b61085f600061111a565b565b610869610bc6565b73ffffffffffffffffffffffffffffffffffffffff166108876108ef565b73ffffffffffffffffffffffffffffffffffffffff16146108dd576040517f08c379a00000000000000000000000000000000000000000000000000000000081526004016108d4906128a7565b60405180910390fd5b6108e9848484846111e0565b50505050565b6000600360009054906101000a900473ffffffffffffffffffffffffffffffffffffffff16905090565b61092b610924610bc6565b8383611376565b5050565b6000600160008473ffffffffffffffffffffffffffffffffffffffff1673ffffffffffffffffffffffffffffffffffffffff16815260200190815260200160002060008373ffffffffffffffffffffffffffffffffffffffff1673ffffffffffffffffffffffffffffffffffffffff16815260200190815260200160002060009054906101000a900460ff16905092915050565b6109cb610bc6565b73ffffffffffffffffffffffffffffffffffffffff168573ffffffffffffffffffffffffffffffffffffffff161480610a115750610a1085610a0b610bc6565b61092f565b5b610a50576040517f08c379a0000000000000000000000000000000000000000000000000000000008152600401610a4790612b65565b60405180910390fd5b610a5d85858585856114e3565b5050505050565b610a6c610bc6565b73ffffffffffffffffffffffffffffffffffffffff16610a8a6108ef565b73ffffffffffffffffffffffffffffffffffffffff1614610ae0576040517f08c379a0000000000000000000000000000000000000000000000000000000008152600401610ad7906128a7565b60405180910390fd5b600073ffffffffffffffffffffffffffffffffffffffff168173ffffffffffffffffffffffffffffffffffffffff161415610b50576040517f08c379a0000000000000000000000000000000000000000000000000000000008152600401610b4790612bf7565b60405180910390fd5b610b598161111a565b50565b60007f01ffc9a7000000000000000000000000000000000000000000000000000000007bffffffffffffffffffffffffffffffffffffffffffffffffffffffff1916827bffffffffffffffffffffffffffffffffffffffffffffffffffffffff1916149050919050565b600033905090565b8060029080519060200190610be4929190611bc8565b5050565b600073ffffffffffffffffffffffffffffffffffffffff168473ffffffffffffffffffffffffffffffffffffffff161415610c58576040517f08c379a0000000000000000000000000000000000000000000000000000000008152600401610c4f90612c89565b60405180910390fd5b8151835114610c9c576040517f08c379a0000000000000000000000000000000000000000000000000000000008152600401610c9390612d1b565b60405180910390fd5b6000610ca6610bc6565b9050610cb781600087878787611765565b60005b8451811015610d7057838181518110610cd657610cd5612a4c565b5b6020026020010151600080878481518110610cf457610cf3612a4c565b5b6020026020010151815260200190815260200160002060008873ffffffffffffffffffffffffffffffffffffffff1673ffffffffffffffffffffffffffffffffffffffff1681526020019081526020016000206000828254610d569190612d3b565b925050819055508080610d6890612aaa565b915050610cba565b508473ffffffffffffffffffffffffffffffffffffffff16600073ffffffffffffffffffffffffffffffffffffffff168273ffffffffffffffffffffffffffffffffffffffff167f4a39dc06d4c0dbc64b70af90fd698a233a518aa5d07e595d983b8c0526c8f7fb8787604051610de8929190612d91565b60405180910390a4610dff8160008787878761176d565b5050505050565b8151835114610e4a576040517f08c379a0000000000000000000000000000000000000000000000000000000008152600401610e4190612d1b565b60405180910390fd5b600073ffffffffffffffffffffffffffffffffffffffff168473ffffffffffffffffffffffffffffffffffffffff161415610eba576040517f08c379a0000000000000000000000000000000000000000000000000000000008152600401610eb190612e3a565b60405180910390fd5b6000610ec4610bc6565b9050610ed4818787878787611765565b60005b8451811015611085576000858281518110610ef557610ef4612a4c565b5b602002602001015190506000858381518110610f1457610f13612a4c565b5b60200260200101519050600080600084815260200190815260200160002060008b73ffffffffffffffffffffffffffffffffffffffff1673ffffffffffffffffffffffffffffffffffffffff16815260200190815260200160002054905081811015610fb5576040517f08c379a0000000000000000000000000000000000000000000000000000000008152600401610fac90612ecc565b60405180910390fd5b81810360008085815260200190815260200160002060008c73ffffffffffffffffffffffffffffffffffffffff1673ffffffffffffffffffffffffffffffffffffffff168152602001908152602001600020819055508160008085815260200190815260200160002060008b73ffffffffffffffffffffffffffffffffffffffff1673ffffffffffffffffffffffffffffffffffffffff168152602001908152602001600020600082825461106a9190612d3b565b925050819055505050508061107e90612aaa565b9050610ed7565b508473ffffffffffffffffffffffffffffffffffffffff168673ffffffffffffffffffffffffffffffffffffffff168273ffffffffffffffffffffffffffffffffffffffff167f4a39dc06d4c0dbc64b70af90fd698a233a518aa5d07e595d983b8c0526c8f7fb87876040516110fc929190612d91565b60405180910390a461111281878787878761176d565b505050505050565b6000600360009054906101000a900473ffffffffffffffffffffffffffffffffffffffff16905081600360006101000a81548173ffffffffffffffffffffffffffffffffffffffff021916908373ffffffffffffffffffffffffffffffffffffffff1602179055508173ffffffffffffffffffffffffffffffffffffffff168173ffffffffffffffffffffffffffffffffffffffff167f8be0079c531659141344cd1fd0a4f28419497f9722a3daafe3b4186f6b6457e060405160405180910390a35050565b600073ffffffffffffffffffffffffffffffffffffffff168473ffffffffffffffffffffffffffffffffffffffff161415611250576040517f08c379a000000000000000000000000000000000000000000000000000000000815260040161124790612c89565b60405180910390fd5b600061125a610bc6565b905061127b8160008761126c88611954565b61127588611954565b87611765565b8260008086815260200190815260200160002060008773ffffffffffffffffffffffffffffffffffffffff1673ffffffffffffffffffffffffffffffffffffffff16815260200190815260200160002060008282546112da9190612d3b565b925050819055508473ffffffffffffffffffffffffffffffffffffffff16600073ffffffffffffffffffffffffffffffffffffffff168273ffffffffffffffffffffffffffffffffffffffff167fc3d58168c5ae7397731d063d5bbf3d657854427343f4c083240f7aacaa2d0f628787604051611358929190612eec565b60405180910390a461136f816000878787876119ce565b5050505050565b8173ffffffffffffffffffffffffffffffffffffffff168373ffffffffffffffffffffffffffffffffffffffff1614156113e5576040517f08c379a00000000000000000000000000000000000000000000000000000000081526004016113dc90612f87565b60405180910390fd5b80600160008573ffffffffffffffffffffffffffffffffffffffff1673ffffffffffffffffffffffffffffffffffffffff16815260200190815260200160002060008473ffffffffffffffffffffffffffffffffffffffff1673ffffffffffffffffffffffffffffffffffffffff16815260200190815260200160002060006101000a81548160ff0219169083151502179055508173ffffffffffffffffffffffffffffffffffffffff168373ffffffffffffffffffffffffffffffffffffffff167f17307eab39ab6107e8899845ad3d59bd9653f200f220920489ca2b5937696c31836040516114d69190611e1d565b60405180910390a3505050565b600073ffffffffffffffffffffffffffffffffffffffff168473ffffffffffffffffffffffffffffffffffffffff161415611553576040517f08c379a000000000000000000000000000000000000000000000000000000000815260040161154a90612e3a565b60405180910390fd5b600061155d610bc6565b905061157d81878761156e88611954565b61157788611954565b87611765565b600080600086815260200190815260200160002060008873ffffffffffffffffffffffffffffffffffffffff1673ffffffffffffffffffffffffffffffffffffffff16815260200190815260200160002054905083811015611614576040517f08c379a000000000000000000000000000000000000000000000000000000000815260040161160b90612ecc565b60405180910390fd5b83810360008087815260200190815260200160002060008973ffffffffffffffffffffffffffffffffffffffff1673ffffffffffffffffffffffffffffffffffffffff168152602001908152602001600020819055508360008087815260200190815260200160002060008873ffffffffffffffffffffffffffffffffffffffff1673ffffffffffffffffffffffffffffffffffffffff16815260200190815260200160002060008282546116c99190612d3b565b925050819055508573ffffffffffffffffffffffffffffffffffffffff168773ffffffffffffffffffffffffffffffffffffffff168373ffffffffffffffffffffffffffffffffffffffff167fc3d58168c5ae7397731d063d5bbf3d657854427343f4c083240f7aacaa2d0f628888604051611746929190612eec565b60405180910390a461175c8288888888886119ce565b50505050505050565b505050505050565b61178c8473ffffffffffffffffffffffffffffffffffffffff16611bb5565b1561194c578373ffffffffffffffffffffffffffffffffffffffff1663bc197c8187878686866040518663ffffffff1660e01b81526004016117d2959493929190612ffc565b602060405180830381600087803b1580156117ec57600080fd5b505af192505050801561181d57506040513d601f19601f8201168201806040525081019061181a9190613079565b60015b6118c3576118296130b3565b806308c379a01415611886575061183e6130d5565b806118495750611888565b806040517f08c379a000000000000000000000000000000000000000000000000000000000815260040161187d919061207c565b60405180910390fd5b505b6040517f08c379a00000000000000000000000000000000000000000000000000000000081526004016118ba906131dd565b60405180910390fd5b63bc197c8160e01b7bffffffffffffffffffffffffffffffffffffffffffffffffffffffff1916817bffffffffffffffffffffffffffffffffffffffffffffffffffffffff19161461194a576040517f08c379a00000000000000000000000000000000000000000000000000000000081526004016119419061326f565b60405180910390fd5b505b505050505050565b60606000600167ffffffffffffffff81111561197357611972611e53565b5b6040519080825280602002602001820160405280156119a15781602001602082028036833780820191505090505b50905082816000815181106119b9576119b8612a4c565b5b60200260200101818152505080915050919050565b6119ed8473ffffffffffffffffffffffffffffffffffffffff16611bb5565b15611bad578373ffffffffffffffffffffffffffffffffffffffff1663f23a6e6187878686866040518663ffffffff1660e01b8152600401611a3395949392919061328f565b602060405180830381600087803b158015611a4d57600080fd5b505af1925050508015611a7e57506040513d601f19601f82011682018060405250810190611a7b9190613079565b60015b611b2457611a8a6130b3565b806308c379a01415611ae75750611a9f6130d5565b80611aaa5750611ae9565b806040517f08c379a0000000000000000000000000000000000000000000000000000000008152600401611ade919061207c565b60405180910390fd5b505b6040517f08c379a0000000000000000000000000000000000000000000000000000000008152600401611b1b906131dd565b60405180910390fd5b63f23a6e6160e01b7bffffffffffffffffffffffffffffffffffffffffffffffffffffffff1916817bffffffffffffffffffffffffffffffffffffffffffffffffffffffff191614611bab576040517f08c379a0000000000000000000000000000000000000000000000000000000008152600401611ba29061326f565b60405180910390fd5b505b505050505050565b600080823b905060008111915050919050565b828054611bd4906128f6565b90600052602060002090601f016020900481019282611bf65760008555611c3d565b82601f10611c0f57805160ff1916838001178555611c3d565b82800160010185558215611c3d579182015b82811115611c3c578251825591602001919060010190611c21565b5b509050611c4a9190611c4e565b5090565b5b80821115611c67576000816000905550600101611c4f565b5090565b6000604051905090565b600080fd5b600080fd5b600073ffffffffffffffffffffffffffffffffffffffff82169050919050565b6000611caa82611c7f565b9050919050565b611cba81611c9f565b8114611cc557600080fd5b50565b600081359050611cd781611cb1565b92915050565b6000819050919050565b611cf081611cdd565b8114611cfb57600080fd5b50565b600081359050611d0d81611ce7565b92915050565b60008060408385031215611d2a57611d29611c75565b5b6000611d3885828601611cc8565b9250506020611d4985828601611cfe565b9150509250929050565b611d5c81611cdd565b82525050565b6000602082019050611d776000830184611d53565b92915050565b60007fffffffff0000000000000000000000000000000000000000000000000000000082169050919050565b611db281611d7d565b8114611dbd57600080fd5b50565b600081359050611dcf81611da9565b92915050565b600060208284031215611deb57611dea611c75565b5b6000611df984828501611dc0565b91505092915050565b60008115159050919050565b611e1781611e02565b82525050565b6000602082019050611e326000830184611e0e565b92915050565b600080fd5b600080fd5b6000601f19601f8301169050919050565b7f4e487b7100000000000000000000000000000000000000000000000000000000600052604160045260246000fd5b611e8b82611e42565b810181811067ffffffffffffffff82111715611eaa57611ea9611e53565b5b80604052505050565b6000611ebd611c6b565b9050611ec98282611e82565b919050565b600067ffffffffffffffff821115611ee957611ee8611e53565b5b611ef282611e42565b9050602081019050919050565b82818337600083830152505050565b6000611f21611f1c84611ece565b611eb3565b905082815260208101848484011115611f3d57611f3c611e3d565b5b611f48848285611eff565b509392505050565b600082601f830112611f6557611f64611e38565b5b8135611f75848260208601611f0e565b91505092915050565b600060208284031215611f9457611f93611c75565b5b600082013567ffffffffffffffff811115611fb257611fb1611c7a565b5b611fbe84828501611f50565b91505092915050565b600060208284031215611fdd57611fdc611c75565b5b6000611feb84828501611cfe565b91505092915050565b600081519050919050565b600082825260208201905092915050565b60005b8381101561202e578082015181840152602081019050612013565b8381111561203d576000848401525b50505050565b600061204e82611ff4565b6120588185611fff565b9350612068818560208601612010565b61207181611e42565b840191505092915050565b600060208201905081810360008301526120968184612043565b905092915050565b600067ffffffffffffffff8211156120b9576120b8611e53565b5b602082029050602081019050919050565b600080fd5b60006120e26120dd8461209e565b611eb3565b90508083825260208201905060208402830185811115612105576121046120ca565b5b835b8181101561212e578061211a8882611cfe565b845260208401935050602081019050612107565b5050509392505050565b600082601f83011261214d5761214c611e38565b5b813561215d8482602086016120cf565b91505092915050565b600067ffffffffffffffff82111561218157612180611e53565b5b61218a82611e42565b9050602081019050919050565b60006121aa6121a584612166565b611eb3565b9050828152602081018484840111156121c6576121c5611e3d565b5b6121d1848285611eff565b509392505050565b600082601f8301126121ee576121ed611e38565b5b81356121fe848260208601612197565b91505092915050565b6000806000806080858703121561222157612220611c75565b5b600061222f87828801611cc8565b945050602085013567ffffffffffffffff8111156122505761224f611c7a565b5b61225c87828801612138565b935050604085013567ffffffffffffffff81111561227d5761227c611c7a565b5b61228987828801612138565b925050606085013567ffffffffffffffff8111156122aa576122a9611c7a565b5b6122b6878288016121d9565b91505092959194509250565b600080600080600060a086880312156122de576122dd611c75565b5b60006122ec88828901611cc8565b95505060206122fd88828901611cc8565b945050604086013567ffffffffffffffff81111561231e5761231d611c7a565b5b61232a88828901612138565b935050606086013567ffffffffffffffff81111561234b5761234a611c7a565b5b61235788828901612138565b925050608086013567ffffffffffffffff81111561237857612377611c7a565b5b612384888289016121d9565b9150509295509295909350565b600067ffffffffffffffff8211156123ac576123ab611e53565b5b602082029050602081019050919050565b60006123d06123cb84612391565b611eb3565b905080838252602082019050602084028301858111156123f3576123f26120ca565b5b835b8181101561241c57806124088882611cc8565b8452602084019350506020810190506123f5565b5050509392505050565b600082601f83011261243b5761243a611e38565b5b813561244b8482602086016123bd565b91505092915050565b6000806040838503121561246b5761246a611c75565b5b600083013567ffffffffffffffff81111561248957612488611c7a565b5b61249585828601612426565b925050602083013567ffffffffffffffff8111156124b6576124b5611c7a565b5b6124c285828601612138565b9150509250929050565b600081519050919050565b600082825260208201905092915050565b6000819050602082019050919050565b61250181611cdd565b82525050565b600061251383836124f8565b60208301905092915050565b6000602082019050919050565b6000612537826124cc565b61254181856124d7565b935061254c836124e8565b8060005b8381101561257d5781516125648882612507565b975061256f8361251f565b925050600181019050612550565b5085935050505092915050565b600060208201905081810360008301526125a4818461252c565b905092915050565b600080600080608085870312156125c6576125c5611c75565b5b60006125d487828801611cc8565b94505060206125e587828801611cfe565b93505060406125f687828801611cfe565b925050606085013567ffffffffffffffff81111561261757612616611c7a565b5b612623878288016121d9565b91505092959194509250565b61263881611c9f565b82525050565b6000602082019050612653600083018461262f565b92915050565b61266281611e02565b811461266d57600080fd5b50565b60008135905061267f81612659565b92915050565b6000806040838503121561269c5761269b611c75565b5b60006126aa85828601611cc8565b92505060206126bb85828601612670565b9150509250929050565b600080604083850312156126dc576126db611c75565b5b60006126ea85828601611cc8565b92505060206126fb85828601611cc8565b9150509250929050565b600080600080600060a0868803121561272157612720611c75565b5b600061272f88828901611cc8565b955050602061274088828901611cc8565b945050604061275188828901611cfe565b935050606061276288828901611cfe565b925050608086013567ffffffffffffffff81111561278357612782611c7a565b5b61278f888289016121d9565b9150509295509295909350565b6000602082840312156127b2576127b1611c75565b5b60006127c084828501611cc8565b91505092915050565b7f455243313135353a2062616c616e636520717565727920666f7220746865207a60008201527f65726f2061646472657373000000000000000000000000000000000000000000602082015250565b6000612825602b83611fff565b9150612830826127c9565b604082019050919050565b6000602082019050818103600083015261285481612818565b9050919050565b7f4f776e61626c653a2063616c6c6572206973206e6f7420746865206f776e6572600082015250565b6000612891602083611fff565b915061289c8261285b565b602082019050919050565b600060208201905081810360008301526128c081612884565b9050919050565b7f4e487b7100000000000000000000000000000000000000000000000000000000600052602260045260246000fd5b6000600282049050600182168061290e57607f821691505b60208210811415612922576129216128c7565b5b50919050565b7f455243313135353a207472616e736665722063616c6c6572206973206e6f742060008201527f6f776e6572206e6f7220617070726f7665640000000000000000000000000000602082015250565b6000612984603283611fff565b915061298f82612928565b604082019050919050565b600060208201905081810360008301526129b381612977565b9050919050565b7f455243313135353a206163636f756e747320616e6420696473206c656e67746860008201527f206d69736d617463680000000000000000000000000000000000000000000000602082015250565b6000612a16602983611fff565b9150612a21826129ba565b604082019050919050565b60006020820190508181036000830152612a4581612a09565b9050919050565b7f4e487b7100000000000000000000000000000000000000000000000000000000600052603260045260246000fd5b7f4e487b7100000000000000000000000000000000000000000000000000000000600052601160045260246000fd5b6000612ab582611cdd565b91507fffffffffffffffffffffffffffffffffffffffffffffffffffffffffffffffff821415612ae857612ae7612a7b565b5b600182019050919050565b7f455243313135353a2063616c6c6572206973206e6f74206f776e6572206e6f7260008201527f20617070726f7665640000000000000000000000000000000000000000000000602082015250565b6000612b4f602983611fff565b9150612b5a82612af3565b604082019050919050565b60006020820190508181036000830152612b7e81612b42565b9050919050565b7f4f776e61626c653a206e6577206f776e657220697320746865207a65726f206160008201527f6464726573730000000000000000000000000000000000000000000000000000602082015250565b6000612be1602683611fff565b9150612bec82612b85565b604082019050919050565b60006020820190508181036000830152612c1081612bd4565b9050919050565b7f455243313135353a206d696e7420746f20746865207a65726f2061646472657360008201527f7300000000000000000000000000000000000000000000000000000000000000602082015250565b6000612c73602183611fff565b9150612c7e82612c17565b604082019050919050565b60006020820190508181036000830152612ca281612c66565b9050919050565b7f455243313135353a2069647320616e6420616d6f756e7473206c656e6774682060008201527f6d69736d61746368000000000000000000000000000000000000000000000000602082015250565b6000612d05602883611fff565b9150612d1082612ca9565b604082019050919050565b60006020820190508181036000830152612d3481612cf8565b9050919050565b6000612d4682611cdd565b9150612d5183611cdd565b9250827fffffffffffffffffffffffffffffffffffffffffffffffffffffffffffffffff03821115612d8657612d85612a7b565b5b828201905092915050565b60006040820190508181036000830152612dab818561252c565b90508181036020830152612dbf818461252c565b90509392505050565b7f455243313135353a207472616e7366657220746f20746865207a65726f20616460008201527f6472657373000000000000000000000000000000000000000000000000000000602082015250565b6000612e24602583611fff565b9150612e2f82612dc8565b604082019050919050565b60006020820190508181036000830152612e5381612e17565b9050919050565b7f455243313135353a20696e73756666696369656e742062616c616e636520666f60008201527f72207472616e7366657200000000000000000000000000000000000000000000602082015250565b6000612eb6602a83611fff565b9150612ec182612e5a565b604082019050919050565b60006020820190508181036000830152612ee581612ea9565b9050919050565b6000604082019050612f016000830185611d53565b612f0e6020830184611d53565b9392505050565b7f455243313135353a2073657474696e6720617070726f76616c2073746174757360008201527f20666f722073656c660000000000000000000000000000000000000000000000602082015250565b6000612f71602983611fff565b9150612f7c82612f15565b604082019050919050565b60006020820190508181036000830152612fa081612f64565b9050919050565b600081519050919050565b600082825260208201905092915050565b6000612fce82612fa7565b612fd88185612fb2565b9350612fe8818560208601612010565b612ff181611e42565b840191505092915050565b600060a082019050613011600083018861262f565b61301e602083018761262f565b8181036040830152613030818661252c565b90508181036060830152613044818561252c565b905081810360808301526130588184612fc3565b90509695505050505050565b60008151905061307381611da9565b92915050565b60006020828403121561308f5761308e611c75565b5b600061309d84828501613064565b91505092915050565b60008160e01c9050919050565b600060033d11156130d25760046000803e6130cf6000516130a6565b90505b90565b600060443d10156130e557613168565b6130ed611c6b565b60043d036004823e80513d602482011167ffffffffffffffff82111715613115575050613168565b808201805167ffffffffffffffff8111156131335750505050613168565b80602083010160043d038501811115613150575050505050613168565b61315f82602001850186611e82565b82955050505050505b90565b7f455243313135353a207472616e7366657220746f206e6f6e204552433131353560008201527f526563656976657220696d706c656d656e746572000000000000000000000000602082015250565b60006131c7603483611fff565b91506131d28261316b565b604082019050919050565b600060208201905081810360008301526131f6816131ba565b9050919050565b7f455243313135353a204552433131353552656365697665722072656a6563746560008201527f6420746f6b656e73000000000000000000000000000000000000000000000000602082015250565b6000613259602883611fff565b9150613264826131fd565b604082019050919050565b600060208201905081810360008301526132888161324c565b9050919050565b600060a0820190506132a4600083018861262f565b6132b1602083018761262f565b6132be6040830186611d53565b6132cb6060830185611d53565b81810360808301526132dd8184612fc3565b9050969550505050505056fea2646970667358221220b5ce88eaf2310b638a4ea5577f197e56080c9165414354c472c39bc16156e3bc64736f6c63430008090033",
  "immutableReferences": {},
  "source": "// SPDX-License-Identifier: MIT\npragma solidity >=0.4.22 <0.9.0;\n\nimport \"@openzeppelin/contracts/token/ERC1155/ERC1155.sol\";\nimport \"@openzeppelin/contracts/access/Ownable.sol\";\n\ncontract NFT1155 is ERC1155, Ownable {\n    constructor() ERC1155(\"\") {}\n\n    function setURI(string memory newuri) public onlyOwner {\n        _setURI(newuri);\n    }\n\n    function mint(address account, uint256 id, uint256 amount, bytes memory data)\n        public\n        onlyOwner\n    {\n        _mint(account, id, amount, data);\n    }\n\n    function mintBatch(address to, uint256[] memory ids, uint256[] memory amounts, bytes memory data)\n        public\n        onlyOwner\n    {\n        _mintBatch(to, ids, amounts, data);\n    }\n}",
  "sourcePath": "/Users/yash/Development/arsyan/batch_nft_seller/contracts/NFT1155.sol",
  "compiler": {
    "name": "solc",
    "version": "0.8.9+commit.e5eed63a.Emscripten.clang"
  },
  "schemaVersion": "3.4.3",
  "updatedAt": "2021-12-06T04:58:24.506Z",
  "networkType": "ethereum",
  "devdoc": {
    "kind": "dev",
    "methods": {
      "balanceOf(address,uint256)": {
        "details": "See {IERC1155-balanceOf}. Requirements: - `account` cannot be the zero address."
      },
      "balanceOfBatch(address[],uint256[])": {
        "details": "See {IERC1155-balanceOfBatch}. Requirements: - `accounts` and `ids` must have the same length."
      },
      "isApprovedForAll(address,address)": {
        "details": "See {IERC1155-isApprovedForAll}."
      },
      "owner()": {
        "details": "Returns the address of the current owner."
      },
      "renounceOwnership()": {
        "details": "Leaves the contract without owner. It will not be possible to call `onlyOwner` functions anymore. Can only be called by the current owner. NOTE: Renouncing ownership will leave the contract without an owner, thereby removing any functionality that is only available to the owner."
      },
      "safeBatchTransferFrom(address,address,uint256[],uint256[],bytes)": {
        "details": "See {IERC1155-safeBatchTransferFrom}."
      },
      "safeTransferFrom(address,address,uint256,uint256,bytes)": {
        "details": "See {IERC1155-safeTransferFrom}."
      },
      "setApprovalForAll(address,bool)": {
        "details": "See {IERC1155-setApprovalForAll}."
      },
      "supportsInterface(bytes4)": {
        "details": "See {IERC165-supportsInterface}."
      },
      "transferOwnership(address)": {
        "details": "Transfers ownership of the contract to a new account (`newOwner`). Can only be called by the current owner."
      },
      "uri(uint256)": {
        "details": "See {IERC1155MetadataURI-uri}. This implementation returns the same URI for *all* token types. It relies on the token type ID substitution mechanism https://eips.ethereum.org/EIPS/eip-1155#metadata[defined in the EIP]. Clients calling this function must replace the `\\{id\\}` substring with the actual token type ID."
      }
    },
    "version": 1
  },
  "userdoc": {
    "kind": "user",
    "methods": {},
    "version": 1
  }
}