{
  "contractName": "Seller2",
  "abi": [
    {
      "inputs": [
        {
          "internalType": "address",
          "name": "_contractAddress",
          "type": "address"
        },
        {
          "internalType": "uint256",
          "name": "_price",
          "type": "uint256"
        },
        {
          "internalType": "address",
          "name": "_owner",
          "type": "address"
        },
        {
          "internalType": "uint256[100]",
          "name": "_tokenIds",
          "type": "uint256[100]"
        }
      ],
      "stateMutability": "nonpayable",
      "type": "constructor"
    },
    {
      "anonymous": false,
      "inputs": [
        {
          "indexed": false,
          "internalType": "address",
          "name": "buyer",
          "type": "address"
        },
        {
          "indexed": false,
          "internalType": "uint256",
          "name": "price",
          "type": "uint256"
        }
      ],
      "name": "Sold",
      "type": "event"
    },
    {
      "anonymous": false,
      "inputs": [
        {
          "indexed": false,
          "internalType": "uint256",
          "name": "price",
          "type": "uint256"
        }
      ],
      "name": "UpdatePrice",
      "type": "event"
    },
    {
      "anonymous": false,
      "inputs": [
        {
          "indexed": false,
          "internalType": "bool",
          "name": "status",
          "type": "bool"
        }
      ],
      "name": "UpdateStatus",
      "type": "event"
    },
    {
      "inputs": [],
      "name": "active",
      "outputs": [
        {
          "internalType": "bool",
          "name": "",
          "type": "bool"
        }
      ],
      "stateMutability": "view",
      "type": "function",
      "constant": true
    },
    {
      "inputs": [],
      "name": "contractAddress",
      "outputs": [
        {
          "internalType": "address",
          "name": "",
          "type": "address"
        }
      ],
      "stateMutability": "view",
      "type": "function",
      "constant": true
    },
    {
      "inputs": [],
      "name": "owner",
      "outputs": [
        {
          "internalType": "address",
          "name": "",
          "type": "address"
        }
      ],
      "stateMutability": "view",
      "type": "function",
      "constant": true
    },
    {
      "inputs": [],
      "name": "price",
      "outputs": [
        {
          "internalType": "uint256",
          "name": "",
          "type": "uint256"
        }
      ],
      "stateMutability": "view",
      "type": "function",
      "constant": true
    },
    {
      "inputs": [
        {
          "internalType": "uint256",
          "name": "",
          "type": "uint256"
        }
      ],
      "name": "tokenIds",
      "outputs": [
        {
          "internalType": "uint256",
          "name": "",
          "type": "uint256"
        }
      ],
      "stateMutability": "view",
      "type": "function",
      "constant": true
    },
    {
      "inputs": [],
      "name": "total",
      "outputs": [
        {
          "internalType": "uint256",
          "name": "",
          "type": "uint256"
        }
      ],
      "stateMutability": "view",
      "type": "function",
      "constant": true
    },
    {
      "inputs": [
        {
          "internalType": "uint256",
          "name": "_price",
          "type": "uint256"
        }
      ],
      "name": "setPrice",
      "outputs": [],
      "stateMutability": "nonpayable",
      "type": "function"
    },
    {
      "inputs": [],
      "name": "activate",
      "outputs": [],
      "stateMutability": "nonpayable",
      "type": "function"
    },
    {
      "inputs": [],
      "name": "deactivate",
      "outputs": [],
      "stateMutability": "nonpayable",
      "type": "function"
    },
    {
      "inputs": [],
      "name": "buy",
      "outputs": [],
      "stateMutability": "payable",
      "type": "function",
      "payable": true
    }
  ],
  "bytecode": "0x608060405260646066556001606860146101000a81548160ff0219169083151502179055503480156200003157600080fd5b5060405162001330380380620013308339818101604052810190620000579190620003d7565b83606460006101000a81548173ffffffffffffffffffffffffffffffffffffffff021916908373ffffffffffffffffffffffffffffffffffffffff160217905550606460009054906101000a900473ffffffffffffffffffffffffffffffffffffffff16606560006101000a81548173ffffffffffffffffffffffffffffffffffffffff021916908373ffffffffffffffffffffffffffffffffffffffff1602179055508260678190555081606860006101000a81548173ffffffffffffffffffffffffffffffffffffffff021916908373ffffffffffffffffffffffffffffffffffffffff1602179055508060009060646200015692919062000161565b50505050506200044a565b826064810192821562000193579160200282015b828111156200019257825182559160200191906001019062000175565b5b509050620001a29190620001a6565b5090565b5b80821115620001c1576000816000905550600101620001a7565b5090565b6000604051905090565b600080fd5b600073ffffffffffffffffffffffffffffffffffffffff82169050919050565b60006200020182620001d4565b9050919050565b6200021381620001f4565b81146200021f57600080fd5b50565b600081519050620002338162000208565b92915050565b6000819050919050565b6200024e8162000239565b81146200025a57600080fd5b50565b6000815190506200026e8162000243565b92915050565b600080fd5b6000601f19601f8301169050919050565b7f4e487b7100000000000000000000000000000000000000000000000000000000600052604160045260246000fd5b620002c48262000279565b810181811067ffffffffffffffff82111715620002e657620002e56200028a565b5b80604052505050565b6000620002fb620001c5565b9050620003098282620002b9565b919050565b600067ffffffffffffffff8211156200032c576200032b6200028a565b5b602082029050919050565b600080fd5b6000620003536200034d846200030e565b620002ef565b9050806020840283018581111562000370576200036f62000337565b5b835b818110156200039d57806200038888826200025d565b84526020840193505060208101905062000372565b5050509392505050565b600082601f830112620003bf57620003be62000274565b5b6064620003ce8482856200033c565b91505092915050565b600080600080610ce08587031215620003f557620003f4620001cf565b5b6000620004058782880162000222565b945050602062000418878288016200025d565b93505060406200042b8782880162000222565b92505060606200043e87828801620003a7565b91505092959194509250565b610ed6806200045a6000396000f3fe6080604052600436106100915760003560e01c806391b7f5ed1161005957806391b7f5ed14610145578063a035b1fe1461016e578063a6f2ae3a14610199578063d58778d6146101a3578063f6b4dfb4146101e057610091565b806302fb0c5e146100965780630f15f4c0146100c15780632ddbd13a146100d857806351b42b00146101035780638da5cb5b1461011a575b600080fd5b3480156100a257600080fd5b506100ab61020b565b6040516100b89190610944565b60405180910390f35b3480156100cd57600080fd5b506100d661021e565b005b3480156100e457600080fd5b506100ed610311565b6040516100fa9190610978565b60405180910390f35b34801561010f57600080fd5b50610118610317565b005b34801561012657600080fd5b5061012f61040a565b60405161013c91906109d4565b60405180910390f35b34801561015157600080fd5b5061016c60048036038101906101679190610a20565b610430565b005b34801561017a57600080fd5b50610183610503565b6040516101909190610978565b60405180910390f35b6101a1610509565b005b3480156101af57600080fd5b506101ca60048036038101906101c59190610a20565b6108e8565b6040516101d79190610978565b60405180910390f35b3480156101ec57600080fd5b506101f5610903565b60405161020291906109d4565b60405180910390f35b606860149054906101000a900460ff1681565b606860009054906101000a900473ffffffffffffffffffffffffffffffffffffffff1673ffffffffffffffffffffffffffffffffffffffff163373ffffffffffffffffffffffffffffffffffffffff16146102ae576040517f08c379a00000000000000000000000000000000000000000000000000000000081526004016102a590610aaa565b60405180910390fd5b6001606860146101000a81548160ff0219169083151502179055507f97f6b2833a963a71c1c8b235c45a1f5e5d18f5b7c419cbed66551de6afe74562606860149054906101000a900460ff166040516103079190610944565b60405180910390a1565b60665481565b606860009054906101000a900473ffffffffffffffffffffffffffffffffffffffff1673ffffffffffffffffffffffffffffffffffffffff163373ffffffffffffffffffffffffffffffffffffffff16146103a7576040517f08c379a000000000000000000000000000000000000000000000000000000000815260040161039e90610aaa565b60405180910390fd5b6000606860146101000a81548160ff0219169083151502179055507f97f6b2833a963a71c1c8b235c45a1f5e5d18f5b7c419cbed66551de6afe74562606860149054906101000a900460ff166040516104009190610944565b60405180910390a1565b606860009054906101000a900473ffffffffffffffffffffffffffffffffffffffff1681565b606860009054906101000a900473ffffffffffffffffffffffffffffffffffffffff1673ffffffffffffffffffffffffffffffffffffffff163373ffffffffffffffffffffffffffffffffffffffff16146104c0576040517f08c379a00000000000000000000000000000000000000000000000000000000081526004016104b790610aaa565b60405180910390fd5b806067819055507f1a15ab7124a4e1ce00837351261771caf1691cd7d85ed3a0ac3157a1ee1a38056067546040516104f89190610978565b60405180910390a150565b60675481565b606860149054906101000a900460ff16610558576040517f08c379a000000000000000000000000000000000000000000000000000000000815260040161054f90610b16565b60405180910390fd5b606754341461059c576040517f08c379a000000000000000000000000000000000000000000000000000000000815260040161059390610b82565b60405180910390fd5b3373ffffffffffffffffffffffffffffffffffffffff16606860009054906101000a900473ffffffffffffffffffffffffffffffffffffffff1673ffffffffffffffffffffffffffffffffffffffff16141561062d576040517f08c379a000000000000000000000000000000000000000000000000000000000815260040161062490610bee565b60405180910390fd5b606560009054906101000a900473ffffffffffffffffffffffffffffffffffffffff1673ffffffffffffffffffffffffffffffffffffffff1663e985e9c5606860009054906101000a900473ffffffffffffffffffffffffffffffffffffffff16306040518363ffffffff1660e01b81526004016106ac929190610c0e565b60206040518083038186803b1580156106c457600080fd5b505afa1580156106d8573d6000803e3d6000fd5b505050506040513d601f19601f820116820180604052508101906106fc9190610c63565b61073b576040517f08c379a000000000000000000000000000000000000000000000000000000000815260040161073290610cdc565b60405180910390fd5b60005b60665481101561082657606560009054906101000a900473ffffffffffffffffffffffffffffffffffffffff1673ffffffffffffffffffffffffffffffffffffffff1663f242432a606860009054906101000a900473ffffffffffffffffffffffffffffffffffffffff1633600085606481106107be576107bd610cfc565b5b015460016040518563ffffffff1660e01b81526004016107e19493929190610da7565b600060405180830381600087803b1580156107fb57600080fd5b505af115801561080f573d6000803e3d6000fd5b50505050808061081e90610e2e565b91505061073e565b50606860009054906101000a900473ffffffffffffffffffffffffffffffffffffffff1673ffffffffffffffffffffffffffffffffffffffff166108fc349081150290604051600060405180830381858888f1935050505015801561088f573d6000803e3d6000fd5b506000606860146101000a81548160ff0219169083151502179055507fae92ab4b6f8f401ead768d3273e6bb937a13e39827d19c6376e8fd4512a05d9a336067546040516108de929190610e77565b60405180910390a1565b600081606481106108f857600080fd5b016000915090505481565b606460009054906101000a900473ffffffffffffffffffffffffffffffffffffffff1681565b60008115159050919050565b61093e81610929565b82525050565b60006020820190506109596000830184610935565b92915050565b6000819050919050565b6109728161095f565b82525050565b600060208201905061098d6000830184610969565b92915050565b600073ffffffffffffffffffffffffffffffffffffffff82169050919050565b60006109be82610993565b9050919050565b6109ce816109b3565b82525050565b60006020820190506109e960008301846109c5565b92915050565b600080fd5b6109fd8161095f565b8114610a0857600080fd5b50565b600081359050610a1a816109f4565b92915050565b600060208284031215610a3657610a356109ef565b5b6000610a4484828501610a0b565b91505092915050565b600082825260208201905092915050565b7f4f6e6c79206f776e657220616c6c6f7765640000000000000000000000000000600082015250565b6000610a94601283610a4d565b9150610a9f82610a5e565b602082019050919050565b60006020820190508181036000830152610ac381610a87565b9050919050565b7f636f6e7472616374206e6f742061637469766500000000000000000000000000600082015250565b6000610b00601383610a4d565b9150610b0b82610aca565b602082019050919050565b60006020820190508181036000830152610b2f81610af3565b9050919050565b7f6e6f7420656e6f75676820455448000000000000000000000000000000000000600082015250565b6000610b6c600e83610a4d565b9150610b7782610b36565b602082019050919050565b60006020820190508181036000830152610b9b81610b5f565b9050919050565b7f63616e6e6f74206275792066726f6d20796f757273656c660000000000000000600082015250565b6000610bd8601883610a4d565b9150610be382610ba2565b602082019050919050565b60006020820190508181036000830152610c0781610bcb565b9050919050565b6000604082019050610c2360008301856109c5565b610c3060208301846109c5565b9392505050565b610c4081610929565b8114610c4b57600080fd5b50565b600081519050610c5d81610c37565b92915050565b600060208284031215610c7957610c786109ef565b5b6000610c8784828501610c4e565b91505092915050565b7f6e6f7420617070726f76656420666f7220616c6c000000000000000000000000600082015250565b6000610cc6601483610a4d565b9150610cd182610c90565b602082019050919050565b60006020820190508181036000830152610cf581610cb9565b9050919050565b7f4e487b7100000000000000000000000000000000000000000000000000000000600052603260045260246000fd5b6000819050919050565b6000819050919050565b6000610d5a610d55610d5084610d2b565b610d35565b61095f565b9050919050565b610d6a81610d3f565b82525050565b600082825260208201905092915050565b50565b6000610d91600083610d70565b9150610d9c82610d81565b600082019050919050565b600060a082019050610dbc60008301876109c5565b610dc960208301866109c5565b610dd66040830185610969565b610de36060830184610d61565b8181036080830152610df481610d84565b905095945050505050565b7f4e487b7100000000000000000000000000000000000000000000000000000000600052601160045260246000fd5b6000610e398261095f565b91507fffffffffffffffffffffffffffffffffffffffffffffffffffffffffffffffff821415610e6c57610e6b610dff565b5b600182019050919050565b6000604082019050610e8c60008301856109c5565b610e996020830184610969565b939250505056fea2646970667358221220845e68aced873c14328aaad7d47f3c33a093c6ea15050d1a94ca1d3f6b9d496364736f6c63430008090033",
  "immutableReferences": {},
  "source": "// SPDX-License-Identifier: MIT\npragma solidity >=0.4.22 <0.9.0;\n\nimport \"@openzeppelin/contracts/token/ERC1155/IERC1155.sol\";\n\n// [2, 3, 4, 10005, 10006, 10007, 10008, 10009, 10010, 10011, 10013, 10017, 10018, 10020, 10021, 10025, 10026, 10027, 10028, 10030, 10032, 10036, 10037, 10038, 10039, 10040, 10041, 10042, 10043, 10044, 10047, 10048, 10049, 10052, 10053, 10054, 10056, 10057, 10058, 10059, 10061, 10062, 10063, 10064, 10065, 10066, 10067, 10068, 10069, 10070, 10072, 10073, 10074, 10075, 10077, 10078, 10079, 10080, 10081, 10086, 10089, 10090, 10091, 10092, 10093, 10094, 10095, 10098, 10099, 10101, 10108, 10109, 10110, 10112, 10114, 10115, 10116, 10117, 10118, 10119, 10121, 10122, 10123, 10124, 10125, 10126, 10127, 10128, 10130, 10131, 10133, 10134, 10135, 10136, 10137, 10138, 10140, 10141, 10142, 10143]\n\ncontract Seller2 {\n    uint256[100] public tokenIds;\n    address public contractAddress;\n    IERC1155 nftContract;\n    uint256 public total = 100;\n    uint256 public price;\n    address public owner;\n    bool public active = true;\n\n    event UpdateStatus(bool status);\n    event Sold(address buyer, uint256 price);\n    event UpdatePrice(uint256 price);\n\n    constructor(\n        address _contractAddress,\n        uint256 _price,\n        address _owner,\n        uint256[100] memory _tokenIds\n    ) {\n        contractAddress = _contractAddress;\n        nftContract = IERC1155(contractAddress);\n        price = _price;\n        owner = _owner;\n        tokenIds = _tokenIds;\n    }\n\n    modifier onlyOwner() {\n        require(msg.sender == owner, \"Only owner allowed\");\n        _;\n    }\n\n    function setPrice(uint256 _price) public onlyOwner {\n        price = _price;\n        emit UpdatePrice(price);\n    }\n\n    function activate() public onlyOwner {\n        active = true;\n        emit UpdateStatus(active);\n    }\n\n    function deactivate() public onlyOwner {\n        active = false;\n        emit UpdateStatus(active);\n    }\n\n    function buy() public payable {\n        require(active, \"contract not active\");\n        require(msg.value == price, \"not enough ETH\");\n        require(owner != msg.sender, \"cannot buy from yourself\");\n        require(\n            nftContract.isApprovedForAll(owner, address(this)),\n            \"not approved for all\"\n        );\n        for (uint256 i = 0; i < total; i++) {\n            nftContract.safeTransferFrom(owner, msg.sender, tokenIds[i], 1, \"\");\n        }\n        payable(owner).transfer(msg.value);\n        active = false;\n        emit Sold(msg.sender, price);\n    }\n}\n",
  "sourcePath": "/Users/yash/Development/arsyan/batch_nft_seller/contracts/Seller2.sol",
  "compiler": {
    "name": "solc",
    "version": "0.8.9+commit.e5eed63a.Emscripten.clang"
  },
  "schemaVersion": "3.4.3",
  "updatedAt": "2021-12-06T04:58:24.519Z",
  "networkType": "ethereum",
  "devdoc": {
    "kind": "dev",
    "methods": {},
    "version": 1
  },
  "userdoc": {
    "kind": "user",
    "methods": {},
    "version": 1
  }
}