{
  "contractName": "Seller",
  "abi": [
    {
      "inputs": [],
      "stateMutability": "nonpayable",
      "type": "constructor"
    },
    {
      "inputs": [],
      "name": "active",
      "outputs": [
        {
          "internalType": "bool",
          "name": "",
          "type": "bool"
        }
      ],
      "stateMutability": "view",
      "type": "function"
    },
    {
      "inputs": [],
      "name": "price",
      "outputs": [
        {
          "internalType": "uint256",
          "name": "",
          "type": "uint256"
        }
      ],
      "stateMutability": "view",
      "type": "function"
    },
    {
      "inputs": [
        {
          "internalType": "uint256",
          "name": "",
          "type": "uint256"
        }
      ],
      "name": "tokenIds",
      "outputs": [
        {
          "internalType": "uint256",
          "name": "",
          "type": "uint256"
        }
      ],
      "stateMutability": "view",
      "type": "function"
    },
    {
      "inputs": [],
      "name": "total",
      "outputs": [
        {
          "internalType": "uint256",
          "name": "",
          "type": "uint256"
        }
      ],
      "stateMutability": "view",
      "type": "function"
    },
    {
      "inputs": [
        {
          "internalType": "address",
          "name": "_contractAddress",
          "type": "address"
        }
      ],
      "name": "setContractAddress",
      "outputs": [],
      "stateMutability": "nonpayable",
      "type": "function"
    },
    {
      "inputs": [
        {
          "internalType": "uint256",
          "name": "_price",
          "type": "uint256"
        }
      ],
      "name": "setPrice",
      "outputs": [],
      "stateMutability": "nonpayable",
      "type": "function"
    },
    {
      "inputs": [
        {
          "internalType": "uint256[]",
          "name": "_tokenIds",
          "type": "uint256[]"
        }
      ],
      "name": "addTokenIdBatch",
      "outputs": [],
      "stateMutability": "nonpayable",
      "type": "function"
    },
    {
      "inputs": [],
      "name": "activate",
      "outputs": [],
      "stateMutability": "nonpayable",
      "type": "function"
    },
    {
      "inputs": [],
      "name": "cancel",
      "outputs": [],
      "stateMutability": "nonpayable",
      "type": "function"
    },
    {
      "inputs": [],
      "name": "clear",
      "outputs": [],
      "stateMutability": "nonpayable",
      "type": "function"
    },
    {
      "inputs": [],
      "name": "buy",
      "outputs": [],
      "stateMutability": "payable",
      "type": "function"
    }
  ],
  "bytecode": "0x6080604052600060025534801561001557600080fd5b506000600360006101000a81548160ff02191690831515021790555033600560006101000a81548173ffffffffffffffffffffffffffffffffffffffff021916908373ffffffffffffffffffffffffffffffffffffffff160217905550611965806100816000396000f3fe60806040526004361061009c5760003560e01c806352efea6e1161006457806352efea6e1461016057806391b7f5ed14610177578063a035b1fe146101a0578063a6f2ae3a146101cb578063d58778d6146101d5578063ea8a1af0146102125761009c565b806302fb0c5e146100a15780630639cc28146100cc5780630f15f4c0146100f55780632ddbd13a1461010c578063477bddaa14610137575b600080fd5b3480156100ad57600080fd5b506100b6610229565b6040516100c39190610f83565b60405180910390f35b3480156100d857600080fd5b506100f360048036038101906100ee9190611141565b61023c565b005b34801561010157600080fd5b5061010a61042a565b005b34801561011857600080fd5b506101216105b1565b60405161012e9190611199565b60405180910390f35b34801561014357600080fd5b5061015e60048036038101906101599190611212565b6105b7565b005b34801561016c57600080fd5b50610175610849565b005b34801561018357600080fd5b5061019e6004803603810190610199919061123f565b61093b565b005b3480156101ac57600080fd5b506101b56109d5565b6040516101c29190611199565b60405180910390f35b6101d36109db565b005b3480156101e157600080fd5b506101fc60048036038101906101f7919061123f565b610e44565b6040516102099190611199565b60405180910390f35b34801561021e57600080fd5b50610227610e5c565b005b600360009054906101000a900460ff1681565b600560009054906101000a900473ffffffffffffffffffffffffffffffffffffffff1673ffffffffffffffffffffffffffffffffffffffff163373ffffffffffffffffffffffffffffffffffffffff16146102cc576040517f08c379a00000000000000000000000000000000000000000000000000000000081526004016102c3906112c9565b60405180910390fd5b600360009054906101000a900460ff161561031c576040517f08c379a000000000000000000000000000000000000000000000000000000000815260040161031390611335565b60405180910390fd5b600073ffffffffffffffffffffffffffffffffffffffff16600160009054906101000a900473ffffffffffffffffffffffffffffffffffffffff1673ffffffffffffffffffffffffffffffffffffffff1614156103ae576040517f08c379a00000000000000000000000000000000000000000000000000000000081526004016103a5906113a1565b60405180910390fd5b60005b815181101561040c578181815181106103cd576103cc6113c1565b5b6020026020010151600080836002546103e6919061141f565b815260200190815260200160002081905550600181610405919061141f565b90506103b1565b50805160026000828254610420919061141f565b9250508190555050565b600560009054906101000a900473ffffffffffffffffffffffffffffffffffffffff1673ffffffffffffffffffffffffffffffffffffffff163373ffffffffffffffffffffffffffffffffffffffff16146104ba576040517f08c379a00000000000000000000000000000000000000000000000000000000081526004016104b1906112c9565b60405180910390fd5b600360009054906101000a900460ff161561050a576040517f08c379a000000000000000000000000000000000000000000000000000000000815260040161050190611335565b60405180910390fd5b60006002541161054f576040517f08c379a0000000000000000000000000000000000000000000000000000000008152600401610546906114c1565b60405180910390fd5b600060045411610594576040517f08c379a000000000000000000000000000000000000000000000000000000000815260040161058b9061152d565b60405180910390fd5b6001600360006101000a81548160ff021916908315150217905550565b60025481565b600560009054906101000a900473ffffffffffffffffffffffffffffffffffffffff1673ffffffffffffffffffffffffffffffffffffffff163373ffffffffffffffffffffffffffffffffffffffff1614610647576040517f08c379a000000000000000000000000000000000000000000000000000000000815260040161063e906112c9565b60405180910390fd5b8073ffffffffffffffffffffffffffffffffffffffff166301ffc9a76380ac58cd6040518263ffffffff1660e01b815260040161068491906115c1565b60206040518083038186803b15801561069c57600080fd5b505afa1580156106b0573d6000803e3d6000fd5b505050506040513d601f19601f820116820180604052508101906106d49190611608565b610713576040517f08c379a000000000000000000000000000000000000000000000000000000000815260040161070a906116a7565b60405180910390fd5b60008190508073ffffffffffffffffffffffffffffffffffffffff1663e985e9c5600560009054906101000a900473ffffffffffffffffffffffffffffffffffffffff16306040518363ffffffff1660e01b81526004016107759291906116d6565b60206040518083038186803b15801561078d57600080fd5b505afa1580156107a1573d6000803e3d6000fd5b505050506040513d601f19601f820116820180604052508101906107c59190611608565b610804576040517f08c379a00000000000000000000000000000000000000000000000000000000081526004016107fb9061174b565b60405180910390fd5b81600160006101000a81548173ffffffffffffffffffffffffffffffffffffffff021916908373ffffffffffffffffffffffffffffffffffffffff1602179055505050565b600560009054906101000a900473ffffffffffffffffffffffffffffffffffffffff1673ffffffffffffffffffffffffffffffffffffffff163373ffffffffffffffffffffffffffffffffffffffff16146108d9576040517f08c379a00000000000000000000000000000000000000000000000000000000081526004016108d0906112c9565b60405180910390fd5b600360009054906101000a900460ff1615610929576040517f08c379a0000000000000000000000000000000000000000000000000000000008152600401610920906117b7565b60405180910390fd5b60006002819055506000600481905550565b600560009054906101000a900473ffffffffffffffffffffffffffffffffffffffff1673ffffffffffffffffffffffffffffffffffffffff163373ffffffffffffffffffffffffffffffffffffffff16146109cb576040517f08c379a00000000000000000000000000000000000000000000000000000000081526004016109c2906112c9565b60405180910390fd5b8060048190555050565b60045481565b600360009054906101000a900460ff16610a2a576040517f08c379a0000000000000000000000000000000000000000000000000000000008152600401610a21906117b7565b60405180910390fd5b600060025411610a6f576040517f08c379a0000000000000000000000000000000000000000000000000000000008152600401610a66906114c1565b60405180910390fd5b6004543414610ab3576040517f08c379a0000000000000000000000000000000000000000000000000000000008152600401610aaa90611823565b60405180910390fd5b600073ffffffffffffffffffffffffffffffffffffffff16600160009054906101000a900473ffffffffffffffffffffffffffffffffffffffff1673ffffffffffffffffffffffffffffffffffffffff161415610b45576040517f08c379a0000000000000000000000000000000000000000000000000000000008152600401610b3c906113a1565b60405180910390fd5b3373ffffffffffffffffffffffffffffffffffffffff16600560009054906101000a900473ffffffffffffffffffffffffffffffffffffffff1673ffffffffffffffffffffffffffffffffffffffff161415610bd6576040517f08c379a0000000000000000000000000000000000000000000000000000000008152600401610bcd9061188f565b60405180910390fd5b6000600160009054906101000a900473ffffffffffffffffffffffffffffffffffffffff1690508073ffffffffffffffffffffffffffffffffffffffff1663e985e9c5600560009054906101000a900473ffffffffffffffffffffffffffffffffffffffff16306040518363ffffffff1660e01b8152600401610c5a9291906116d6565b60206040518083038186803b158015610c7257600080fd5b505afa158015610c86573d6000803e3d6000fd5b505050506040513d601f19601f82011682018060405250810190610caa9190611608565b610ce9576040517f08c379a0000000000000000000000000000000000000000000000000000000008152600401610ce09061174b565b60405180910390fd5b60005b600254811015610dac578173ffffffffffffffffffffffffffffffffffffffff166342842e0e600560009054906101000a900473ffffffffffffffffffffffffffffffffffffffff1633600080868152602001908152602001600020546040518463ffffffff1660e01b8152600401610d67939291906118af565b600060405180830381600087803b158015610d8157600080fd5b505af1158015610d95573d6000803e3d6000fd5b505050508080610da4906118e6565b915050610cec565b50600560009054906101000a900473ffffffffffffffffffffffffffffffffffffffff1673ffffffffffffffffffffffffffffffffffffffff166108fc349081150290604051600060405180830381858888f19350505050158015610e15573d6000803e3d6000fd5b506000600360006101000a81548160ff0219169083151502179055506000600281905550600060048190555050565b60006020528060005260406000206000915090505481565b600560009054906101000a900473ffffffffffffffffffffffffffffffffffffffff1673ffffffffffffffffffffffffffffffffffffffff163373ffffffffffffffffffffffffffffffffffffffff1614610eec576040517f08c379a0000000000000000000000000000000000000000000000000000000008152600401610ee3906112c9565b60405180910390fd5b600360009054906101000a900460ff16610f3b576040517f08c379a0000000000000000000000000000000000000000000000000000000008152600401610f32906117b7565b60405180910390fd5b6000600360006101000a81548160ff02191690831515021790555060006002819055506000600481905550565b60008115159050919050565b610f7d81610f68565b82525050565b6000602082019050610f986000830184610f74565b92915050565b6000604051905090565b600080fd5b600080fd5b600080fd5b6000601f19601f8301169050919050565b7f4e487b7100000000000000000000000000000000000000000000000000000000600052604160045260246000fd5b61100082610fb7565b810181811067ffffffffffffffff8211171561101f5761101e610fc8565b5b80604052505050565b6000611032610f9e565b905061103e8282610ff7565b919050565b600067ffffffffffffffff82111561105e5761105d610fc8565b5b602082029050602081019050919050565b600080fd5b6000819050919050565b61108781611074565b811461109257600080fd5b50565b6000813590506110a48161107e565b92915050565b60006110bd6110b884611043565b611028565b905080838252602082019050602084028301858111156110e0576110df61106f565b5b835b8181101561110957806110f58882611095565b8452602084019350506020810190506110e2565b5050509392505050565b600082601f83011261112857611127610fb2565b5b81356111388482602086016110aa565b91505092915050565b60006020828403121561115757611156610fa8565b5b600082013567ffffffffffffffff81111561117557611174610fad565b5b61118184828501611113565b91505092915050565b61119381611074565b82525050565b60006020820190506111ae600083018461118a565b92915050565b600073ffffffffffffffffffffffffffffffffffffffff82169050919050565b60006111df826111b4565b9050919050565b6111ef816111d4565b81146111fa57600080fd5b50565b60008135905061120c816111e6565b92915050565b60006020828403121561122857611227610fa8565b5b6000611236848285016111fd565b91505092915050565b60006020828403121561125557611254610fa8565b5b600061126384828501611095565b91505092915050565b600082825260208201905092915050565b7f4f6e6c79206f776e657220616c6c6f7765640000000000000000000000000000600082015250565b60006112b360128361126c565b91506112be8261127d565b602082019050919050565b600060208201905081810360008301526112e2816112a6565b9050919050565b7f636f6e747261637420616c726561647920616374697665000000000000000000600082015250565b600061131f60178361126c565b915061132a826112e9565b602082019050919050565b6000602082019050818103600083015261134e81611312565b9050919050565b7f636f6e74726163742061646472657373206e6f74207365740000000000000000600082015250565b600061138b60188361126c565b915061139682611355565b602082019050919050565b600060208201905081810360008301526113ba8161137e565b9050919050565b7f4e487b7100000000000000000000000000000000000000000000000000000000600052603260045260246000fd5b7f4e487b7100000000000000000000000000000000000000000000000000000000600052601160045260246000fd5b600061142a82611074565b915061143583611074565b9250827fffffffffffffffffffffffffffffffffffffffffffffffffffffffffffffffff0382111561146a576114696113f0565b5b828201905092915050565b7f6e6f20746f6b656e206964732061646465640000000000000000000000000000600082015250565b60006114ab60128361126c565b91506114b682611475565b602082019050919050565b600060208201905081810360008301526114da8161149e565b9050919050565b7f7072696365206d7573742062652067726561746572207468616e203000000000600082015250565b6000611517601c8361126c565b9150611522826114e1565b602082019050919050565b600060208201905081810360008301526115468161150a565b9050919050565b6000819050919050565b60007fffffffff0000000000000000000000000000000000000000000000000000000082169050919050565b60008160e01b9050919050565b60006115ab6115a66115a18461154d565b611583565b611557565b9050919050565b6115bb81611590565b82525050565b60006020820190506115d660008301846115b2565b92915050565b6115e581610f68565b81146115f057600080fd5b50565b600081519050611602816115dc565b92915050565b60006020828403121561161e5761161d610fa8565b5b600061162c848285016115f3565b91505092915050565b7f436f6e747261637420646f6573206e6f7420737570706f72742049455243373260008201527f3100000000000000000000000000000000000000000000000000000000000000602082015250565b600061169160218361126c565b915061169c82611635565b604082019050919050565b600060208201905081810360008301526116c081611684565b9050919050565b6116d0816111d4565b82525050565b60006040820190506116eb60008301856116c7565b6116f860208301846116c7565b9392505050565b7f6e6f7420617070726f76656420666f7220616c6c000000000000000000000000600082015250565b600061173560148361126c565b9150611740826116ff565b602082019050919050565b6000602082019050818103600083015261176481611728565b9050919050565b7f636f6e7472616374206e6f742061637469766500000000000000000000000000600082015250565b60006117a160138361126c565b91506117ac8261176b565b602082019050919050565b600060208201905081810360008301526117d081611794565b9050919050565b7f6e6f7420656e6f75676820455448000000000000000000000000000000000000600082015250565b600061180d600e8361126c565b9150611818826117d7565b602082019050919050565b6000602082019050818103600083015261183c81611800565b9050919050565b7f63616e6e6f74206275792066726f6d20796f757273656c660000000000000000600082015250565b600061187960188361126c565b915061188482611843565b602082019050919050565b600060208201905081810360008301526118a88161186c565b9050919050565b60006060820190506118c460008301866116c7565b6118d160208301856116c7565b6118de604083018461118a565b949350505050565b60006118f182611074565b91507fffffffffffffffffffffffffffffffffffffffffffffffffffffffffffffffff821415611924576119236113f0565b5b60018201905091905056fea26469706673582212200b4e7b213f7216c36023df8c4a1ef4d850343900808a38cdba5a2ebfc03d37e564736f6c63430008090033",
  "immutableReferences": {},
  "source": "// SPDX-License-Identifier: MIT\npragma solidity >=0.4.22 <0.9.0;\n\nimport \"@openzeppelin/contracts/token/ERC721/IERC721.sol\";\nimport \"@openzeppelin/contracts/utils/introspection/IERC165.sol\";\n\ncontract Seller {\n  mapping(uint256 => uint256) public tokenIds;\n  address contractAddress;\n  uint256 public total = 0;\n  bool public active;\n  uint256 public price;\n  address owner;\n\n  constructor() {\n    active = false;\n    owner = msg.sender;\n  }\n\n  modifier onlyOwner {\n    require(msg.sender == owner, \"Only owner allowed\");\n    _;\n  }\n\n  function setContractAddress(address _contractAddress) public onlyOwner {\n    require(IERC165(_contractAddress).supportsInterface(0x80ac58cd), \"Contract does not support IERC721\");\n    IERC721 nftContract = IERC721(_contractAddress);\n    require(nftContract.isApprovedForAll(owner, address(this)), \"not approved for all\");\n    contractAddress = _contractAddress;\n  }\n\n  function setPrice(uint256 _price) public onlyOwner {\n    price = _price;\n  }\n\n  function addTokenIdBatch(uint256[] memory _tokenIds) public onlyOwner {\n    require(!active, \"contract already active\");\n    require(contractAddress != address(0), \"contract address not set\");\n    for (uint256 i=0; i < _tokenIds.length; i+=1) {\n      tokenIds[total+i] = _tokenIds[i];\n    }\n    total += _tokenIds.length;\n  }\n\n  function activate() public onlyOwner {\n    require(!active, \"contract already active\");\n    require(total > 0, \"no token ids added\");\n    require(price > 0, \"price must be greater than 0\");\n    active = true;\n  }\n\n  function cancel() public onlyOwner {\n    require(active, \"contract not active\");\n    active = false;\n    total = 0;\n    price = 0;\n  }\n\n  function clear() public onlyOwner {\n    require(!active, \"contract not active\");\n    total = 0;\n    price = 0;\n  }\n\n  function buy() public payable {\n    require(active, \"contract not active\");\n    require(total > 0, \"no token ids added\");\n    require(msg.value == price, \"not enough ETH\");\n    require(contractAddress != address(0), \"contract address not set\");\n    require(owner != msg.sender, \"cannot buy from yourself\");\n    IERC721 nftContract = IERC721(contractAddress);\n    require(nftContract.isApprovedForAll(owner, address(this)), \"not approved for all\");\n    for (uint256 i = 0; i < total; i++) {\n      nftContract.safeTransferFrom(owner, msg.sender, tokenIds[i]);\n    }\n    payable(owner).transfer(msg.value);\n    active = false;\n    total = 0;\n    price = 0;\n  }\n}\n",
  "sourcePath": "/Users/yash/Development/arsyan/batch_nft_seller/contracts/Seller.sol",
  "compiler": {
    "name": "solc",
    "version": "0.8.9+commit.e5eed63a.Emscripten.clang"
  },
  "schemaVersion": "3.4.3",
  "updatedAt": "2021-12-03T04:52:00.158Z",
  "devdoc": {
    "kind": "dev",
    "methods": {},
    "version": 1
  },
  "userdoc": {
    "kind": "user",
    "methods": {},
    "version": 1
  }
}